:020000041000EA
:1000000000B5324B212058609868022188439860DF
:10001000D860186158612E4B002199600221596106
:100020000121F02299502B49196001219960352056
:1000300000F044F80222904214D00621196600F024
:1000400034F8196E01211966002018661A6600F04E
:100050002CF8196E196E196E052000F02FF8012189
:100060000842F9D1002199601B49196000215960AB
:100070001A491B48016001219960EB211966A021F2
:10008000196600F012F800219960164914480160C1
:100090000121996001BC002800D000471248134993
:1000A000086003C880F30888084703B5996A0420EC
:1000B0000142FBD001200142F8D103BD02B5186610
:1000C0001866FFF7F2FF186E186E02BD00000240BE
:1000D000000000180000070000035F00212200005C
:1000E000F4000018222000A00001001008ED00E03C
:1000F00000000000000000000000000074B24E7A12
:1001000000200420F7010010C3010010C5010010F9
:10011000C1010010C1010010C1010010C101001097
:10012000C1010010C1010010C1010010C701001081
:10013000C1010010C1010010C9010010CB01001065
:10014000CD010010CD010010CD010010CD01001037
:10015000CD010010CD010010CD010010CD01001027
:10016000CD010010CD010010CD010010CD01001017
:10017000CD010010CD010010CD010010CD01001007
:10018000CD010010CD010010CD010010CD010010F7
:10019000CD010010CD010010CD010010CD010010E7
:1001A000CD010010CD010010CD010010CD010010D7
:1001B000CD010010CD010010CD010010CD010010C7
:1001C00000BE00BE00BE00BE00BE00BEEFF3058054
:1001D000103800BEF2EB88710CC400102CC4001063
:1001E0003402001090A31AE700201F49086006C8D7
:1001F00081F3088810471D48006800282FD10DA4FE
:100200000ECC002902D000F012F8F9E71849194A7B
:10021000002000E001C19142FCD1174988471749ED
:1002200088471749884700BEFDE701C901C29A42C5
:10023000FBD370472CC40010C0000020DC19002044
:1002400048DD0010000004200000042048DD0010FC
:10025000001004200010042000000000704709482E
:1002600002F05CF80047000008ED00E0000000D05C
:10027000E0190020E4270020ED20001039070010CD
:10028000152200105756000006005250ABB36053C1
:1002900080BB001006005250861C030290BB001069
:1002A000060052505422A29D9CBB001005005250E3
:1002B000DE65F46848DD0010F8B5C0460448054B1B
:1002C00010B5834203D0044B002B00D0984710BDDB
:1002D000DC190020DC190020000000000648074956
:1002E000091A8B10C90FC91810B5491003D0044B57
:1002F000002B00D0984710BDDC190020DC1900202D
:100300000000000010B5074C2378002B09D1FFF73F
:10031000D5FF054B002B02D0044800E000BF0123AD
:10032000237010BD201D00200000000080B90010C7
:10033000054B10B5002B03D00449054800E000BF71
:10034000FFF7CCFF10BDC04600000000241D0020B8
:1003500080B9001070B504004280C361018005209F
:1003600001F0FEFD218802F033F80B380500A06291
:1003700060886421684302F02BF82D1A2563154D1F
:10038000E0622B6805209E6801F0EAFD1249020038
:10039000300005F0A5FB2B68228898680F4905F00E
:1003A0009FFB606A02F0E2FD0B002968020088688A
:1003B0000B4905F095FB2B68A26A9868094905F07E
:1003C0008FFB2968236BE26A8868074905F088FB80
:1003D00070BDC0461010002080B9001090B9001008
:1003E000ACB90010BCB90010CCB90010F0B5C646CD
:1003F00000B5040086B00121C06905F0AFF92549B8
:100400002062E06905F0C8F9234B1834D0CCF3180A
:100410005A1E93410633984605001900200000F04B
:1004200091F94146601C00F08DF90123220039004A
:1004300030000093013305F05BFA80235B020293E6
:10044000AB1DEA011B031343144A390013408022F9
:10045000D20513430393C023114A1B030493A30241
:1004600013401C430F4B2A0030001C4302AB059481
:1004700005F096FA39003000002205F0F1F90A4B38
:100480002A001B680949986805F02AFB06B080BC61
:10049000B846F0BD90BA00100000E0AFFFFFFF9F2C
:1004A000E0FF0FFC0000206010100020ECB90010ED
:1004B000FA2070B5C00082B001F042F802F0E8FF07
:1004C00015221423254C1520A260E3601322122369
:1004D000226163611223A36100F04CF9E06800F02F
:1004E00049F9206900F046F9606900F043F90122FA
:1004F0001000E1681500884011002669A368B1402A
:1005000066699D40D023B2401B065D625862596205
:100510005A629D6198619961200011499A611E2279
:10052000104BFFF717FF2000FFF760FF0E4D0F493C
:100530002B6898686369019323690093E368A26854
:1005400005F0CEFA296863888868A169228800913D
:10055000074905F0C5FA02B070BDC046E81A002090
:10056000204E0000000020501010002028BA00107B
:100570005CBA0010F0B56A4B46464F46D646D025C9
:100580009846C0B5674C684E684F2D062379002BFE
:1005900002D16379002B5AD133680F2201219B6865
:1005A000404605F0EDFA0123A26899469340AB61FD
:1005B0004B46E268E0699340216AAB6105F036FA88
:1005C0004A46236AE0699C4610339A40110043680A
:1005D00019401A42FAD1634604339B001950FA209D
:1005E000C000617100F0ACFF236B51495A04E36A0B
:1005F00038009B000B401343012292461A4380238C
:100600005B00A380336801219B6891460E2205F0B0
:10061000B7FA5346A268216A93406B615346E26879
:10062000E06993406B6105F001FA206A52460300CD
:1006300010339A40E1694B681A42FCD14A46031DC7
:100640009B005A50012383400A6813430B603948CA
:1006500000F076FF2379002B02D06379002B5AD16A
:1006600033680F2201219B68404605F089FA012377
:10067000A26899469340AB614B46E268E0699340BB
:10068000216AAB6105F0D2F94A46236AE0699C46CB
:1006900010339A401100436819401A42FAD1634658
:1006A00004339B001950FA20C000617100F048FF2C
:1006B000236B1F495A04E36A38009B000B40134325
:1006C0000222134399460223FF33A380336801219A
:1006D0009B680C3205F054FA0123A2689A469340B5
:1006E0006B615346E268216A9340E0696B6105F0F3
:1006F0009DF9206A5246030010339A40E1694B6825
:100700001A42FCD14A46031D9B005A5001238340E4
:100710000A6813430B60074800F012FF36E7C04633
:1007200008BA0010E81A00201010002018BA0010B3
:10073000FCFF01001027000010B5FFF7B9FEFFF71E
:1007400019FFC046094A830094464022634410B50D
:100750001C68C0006240C024144080225201134330
:100760001C60034B9C466044416010BD04C00140C6
:10077000004001400123D02283401206936293611E
:10078000094A83009446402263441968C0004A40E5
:10079000C02111408022520113431960034B9C4633
:1007A000052360444360704704C00140004001409D
:1007B000024B18688007C00F7047C04600C0064053
:1007C000EFF3108072B6034A1368002BFCD0BFF31E
:1007D0005F8F70472C0100D0BFF35F8F0022024B68
:1007E0001A6080F3108870472C0100D070B5EFF3C9
:1007F000108C72B60D4D2B68002BFCD0BFF35F8FB1
:100800000724CB08C618C05C01230C40A3401C0081
:100810000440034207D103433370BFF35F8F2C6062
:100820008CF3108870BD100001F012FD2C0100D077
:10083000F8B54746CE46884680B5EFF3108C72B6C1
:10084000214D2C68002CFCD0BFF35F8F9A422CD82E
:10085000D4080727055D061901241740BC402C4227
:100860001FD007210127894609E0D408055D061934
:100870004C4639001440A1400C00294211D00132ED
:100880009342F2D201204042BFF35F8F00220E4B11
:100890001A608CF3108800280FDBC0BCB946B04644
:1008A000F8BD2C4310003470EEE7BFF35F8F0023D8
:1008B0002B608CF31088012040424346002BECD083
:1008C000089801F0C5FCC0462C0100D00021044B63
:1008D000044ABFF35F8F02C39342FAD17047C04608
:1008E000000100D0800100D0044A1078431CDBB224
:1008F000172B00D9102313707047C046380F002003
:1009000000B5054B83B00100009318221F23034854
:10091000FFF78EFF03B000BDA8BA0010D822002058
:1009200001238340002904D0034A1360034A136063
:100930007047034A1360FBE780E200E000E100E05B
:1009400080E100E001238340014A13607047C04604
:1009500000E200E0084B10309B688000C358002B79
:1009600007D0064A00209B1A2F229A424041C0B26B
:1009700070470020FCE7C04600ED00E03C0F00207F
:10098000024B10309B688000C058704700ED00E0BB
:1009900070B50D00EFF3108672B60F4A1368002B86
:1009A000FCD0BFF35F8F0D4B10309B6884001B5948
:1009B0000B4A934203D09D4201D001F061FC074BEA
:1009C0009B681D51BFF35F8FBFF35F8F0022024B07
:1009D0001A6086F3108870BD240100D000ED00E09D
:1009E000CD010010F0B557464E46DE464546E0B50F
:1009F00085B0060002911700EFF3108B72B6674ABC
:100A00001368002BFCD0BFF35F8F0025644B5D574C
:100A10009A46002D00DAA4E06B00624C03935B1948
:100A20009B009846A146C1444B4652469B791036DE
:100A300013705D4BB2009B68019299580B1B2F2BD2
:100A400034D95A4B994200D0A4E0039B584A9C46A3
:100A5000584B6544AD006353434602336519E418AF
:100A6000554B0121043B1B1B1B055B0D13436B8086
:100A7000524BEF71AB80FF23AB71029BAB604B46D7
:100A80000B431900484B019A9B689950BFF35F8F45
:100A9000BFF35F8F0022414B1A608BF3108805B0C3
:100AA000F0BCBB46B246A946A046F0BD01200A00F4
:100AB0008243D379BB422FD845464E461300404966
:100AC0001B1B5B415943090D3A4B63533A4B0235AB
:100AD0006519043B5B1B1B05354D5B0D2B43738078
:100AE0000426B446E0444444131F1B1B4C46A1712A
:100AF00002991B05A16049465B0D2B43A380314B36
:100B0000E77101431360BDE75800C018800020184A
:100B1000C679BE422BD902000623D356002BF3DA46
:100B2000101D82462848804604267642B446E14499
:100B300050464E46361A3005400D824656461C48F1
:100B4000957106439680039A944665441D4AAD000C
:100B5000641922604246A371029BA280E771A360E0
:100B600090E701F08DFB002553465D5754E7101DBB
:100B7000824690884005001584464046D444664627
:100B800004302018301AE0260005400D36023043AC
:100B90008046C9E701F074FB57E7C046240100D046
:100BA000DE2700203C0F002000ED00E0CD0100100A
:100BB00000E0FFFF00A1FFFF6C0F002001BDFFFF61
:100BC000AAAA00000148804701BD0000F0B5DE463A
:100BD00057464E464546E0B50C0083B0EFF310890A
:100BE00072B6584A1368002BFCD0BFF35F8F564B88
:100BF0009A68030010339F00D559544A9046954295
:100C000032D0A54243D0524EAA1B2F2A2CD8012203
:100C10008240924651464F4A126811400191514616
:100C20004D4A1160BFF35F8FEFF305829346002AB0
:100C300033D101232A009A4393689C4208D177E07C
:100C40004B005B189B00F3189968A1422AD01A0048
:100C5000062151560029F3DA019B002B19D0524688
:100C60003E4B1A603B4B1A60374B9B68DD51BFF31C
:100C70005F8FBFF35F8F0022324B1A6089F31088B9
:100C800003B0F0BCBB46B246A946A046F0BD150075
:100C9000EAE75246304B1A60E6E79342C9D001F0CA
:100CA000EFFAC6E706215956002921DB4A00501801
:100CB000800034188046A0689860E079D8710620DA
:100CC00020569871002824DBA488F01A64052415A6
:100CD00044440019E0240005400D2402204398807C
:100CE00052181F4B9200B6181A781970B271B3E7F8
:100CF000594600290FD1FF3191711A499180184945
:100D00000A789A71184A9B1B5B415A43120D0A706C
:100D1000A2E71648E3E7164A1649D21A083A5002E3
:100D2000400D01439980144952080A43DA8093E741
:100D30000621515613000029B8DA5A46002AEAD192
:100D40004546DCE7240100D000ED00E0CD010010B5
:100D50003C0F002000E100E080E100E080E200E0E4
:100D6000DE27002001BDFFFFAAAA000001BD000090
:100D7000760F002000F0FFFF00F8FFFF70B5EFF3E3
:100D8000058101240443EFF3108C72B6214A1368E5
:100D9000002BFCD0BFF35F8F1F4B05001F4AED1ADD
:100DA0006D416A43120D1E4D8900AE6852B27658ED
:100DB000A6421CD00621595691421CD012215956E8
:100DC000914222D01E215956914220D02A215956B3
:100DD0000324914210D0134B19781A708171BFF31C
:100DE0005F8F00220B4B1A608CF3108870BDAB68CC
:100DF0000D4C5C50EFE700246100091989005B1875
:100E0000FF21997109499980E5E70124F4E702245B
:100E1000F2E7C046240100D03C0F0020AAAA00003F
:100E200000ED00E0DE270020CD01001001BDFFFF36
:100E3000054B064A1360064A136053609360D36003
:100E400013615361936170478080808000E400E00B
:100E500004E400E000B5074B83B0010000930022DA
:100E600005230548FFF7E4FC002801DB1F23181ABF
:100E700003B000BDC4BA0010E3270020024B9C461B
:100E800061448900016070474000003410B50400DF
:100E9000FFF72AFD01002000FFF7F0FFFF23237179
:100EA000BFF35F8F10BDC04610B50400FFF71CFDF7
:100EB00001002000FFF7E2FFFF23A380BFF35F8F55
:100EC00010BDC04610B504000120FFF719FD044B0A
:100ED0009C46604480002060BFF35F8F10BDC04619
:100EE00040000034034B9C46614489000160BFF31D
:100EF0005F8F70474000003483680B4810B584460C
:100F000061446244090112019A18591854684B68E7
:100F100001209C4201D802D00020C0B210BD12684E
:100F20000B689A42F9D8F7E7FFFFFF0F0A4B1968E1
:100F3000EFF3108072B60A68002AFCD0BFF35F8F0F
:100F40001B68BFF35F8F00221A6080F3108840BFD8
:100F5000002000217047C046AC270020F8B5574656
:100F60004E464546DE46E0B599460CAB1C780DABC7
:100F70001B78060090469A460768002C11D1BC7B6E
:100F8000002C42D065003B682D19033D59194B7860
:100F9000BB73002B00D1FB7300238B704B700B7065
:100FA00004E065003B682D19033D5919B2682A4BCE
:100FB00094464246E3181B0163441A604A465A604D
:100FC0000A9A9A600B9ADA6000238B704B700B7050
:100FD0007B7B9B46002B2BD022005946B8687B6850
:100FE00098473A68002816D05B4658465B005B4439
:100FF0005519033BA870D118D35C002B00D06B703F
:101000005B460C707B73A34513D0F0BCBB46B24665
:10101000A946A046F8BD5B465B005B44033BD31882
:101020009C705119525D002A00D05A705B460B70BB
:101030007C7342464B46307D00F0CCFB051E06D04B
:101040005346002B03D12100306800F0EDFD0E9BCC
:10105000002BDAD01D70D8E7FFFFFF0FF0B5DE469A
:1010600057464E4645460023E0B58BB00893664B85
:101070008200D45800239B46099000F021FB62684F
:1010800006000F00EFF3108572B61368002BFCD03A
:10109000BFF35F8F23689C465B7B9946002B68D02B
:1010A000A2685A4B90464B441B01984443461A6829
:1010B0005B6810001900801BB941002963DD0998A5
:1010C00000F088FB00230022984600230692079335
:1010D00000239A466368BFF35F8F5A461A6085F310
:1010E00010885346002B08D10028C6D10BB0F0BCA5
:1010F000BB46B246A946A046F0BD089B4146180231
:101100004B461843D047626806000F00EFF3108586
:1011100072B61368002BFCD0BFF35F8F002F4FDB3C
:1011200033003B4302D02369002B60D12368D97B75
:10113000002907D04A00521819688C464946624473
:10114000033A51709A7B002A01D14A469A734A4663
:10115000DA734B46E168013BCA5C0132CA545B4614
:1011600023616368BFF35F8F5A461A6085F3108866
:1011700083E700230022984600230692079300236A
:1011800000209A46A6E7002901D1002897D1002126
:10119000604600F0C7FC43461A685B6806920793F6
:1011A00043469B689A464346DB689846E3684B444F
:1011B000013B1B7808931B0203432361002089E74E
:1011C0002369002BB2D0069A079B921BBB41002BD0
:1011D00015DB59460491012103914946029141468C
:1011E0000191514620000091FFF7B8FEB7E700F0EB
:1011F00067FA32003B0012184B41002BE9DA01225A
:10120000034B5242E5E7C04690270020FFFFFF0F47
:10121000FFFFFF7F10B5144C6368002B04D00A2138
:101220001248FFF72BFE10BD2300114A1021206841
:1012300000F092FB032000F037FA032000F03AFBA5
:1012400003200C4900F080FAFFF74EFB0A4B9C4646
:1012500003232375D0231B061B6860446375074B6B
:1012600080006060DC60DAE7840F0020AC2700209B
:10127000F90E00105D10001040000034902700208F
:1012800000487047840F0020F0B557464E4645464B
:10129000DE46E0B585B0019310AB1B7806000393E2
:1012A00000239A46984600927268EFF3108972B64E
:1012B0001368002BFCD0BFF35F8F3568AC7B002C2C
:1012C00049D067002B683F19033FDB195A78AA738E
:1012D000002A00D1EA73B168484A8C460098019907
:1012E000A21812016244106051600E9991600F992A
:1012F000D16042469A705A701A706B7B9B46002BE5
:1013000045D022001900A8686B6898472A68002811
:1013100030D05B4658465B005B44D719033BB8703E
:10132000D118D35C002B00D07B705B460C706B73C4
:101330005C452DD0F3681B19013B18787368BFF327
:101340005F8F42461A6089F310885346002B2CD1D8
:101350000002204307E07368BFF35F8F1C6089F3CE
:1013600010880120404205B0F0BCBB46B246A946F9
:10137000A046F0BD5B465B005B44033BD3189C700A
:10138000D119D25D002A00D05A705B460B706C7385
:10139000307D009A019B00F01DFA82460028C9D0DA
:1013A0002100306800F040FCC4E7039B002B23D0F1
:1013B0000E9B00200F999847030004000D000B437B
:1013C0001AD000290ADA009A019B121BAB41009245
:1013D0000193002B0ADB039B9A4665E700F070F946
:1013E00024184D4100940195002DF4DA0123044C9A
:1013F0005B4200930194EEE70020B4E7FFFFFF0F8C
:10140000FFFFFF7F70B542680400EFF3108572B6EE
:101410001368002BFCD0BFF35F8F2068CEB2437BF4
:10142000B3420AD0FF230B405A00D31802689446F7
:101430006344033B9B78002B13D0E268FF23944660
:101440000B406344013B0A0A1978D2B291420ED094
:1014500000206368BFF35F8F00221A6085F3108855
:1014600070BD22698A42F3D100202361F1E7310087
:1014700000F0DAFBEDE7C046407D7047F0B50400B0
:101480000D0006267642F717C64636196F4100B59D
:1014900084B08F4214D811D000F012F932003B0012
:1014A000121A8B41002B15DC002B3ED020002900A6
:1014B00000F03AF904B080BCB846F0BD8642EBD9E2
:1014C0000026002700F0FCF832003B00121A8B4186
:1014D000002BE9DD002302930193154B32000093AA
:1014E00014483B00FFF7D0FE0028DFDB00239846BE
:1014F000BC46114A114F7B6A9C4504D8B96A8E429A
:10150000D4D99C45D2D11168EFF3108072B60B6824
:10151000002BFCD0BFF35F8F1368BFF35F8F414692
:10152000196080F3108820BFE5E7002ABED0D1E71C
:101530002D0F0010840F0020AC2700200040054034
:1015400070B5060000F0BCF8FA2204000D0000237C
:1015500030000021920001F0EFFC001969410029E0
:1015600002DBFFF78BFF70BD012001494042F8E725
:10157000FFFFFF7F70B5EFF3058305000C0084B01B
:10158000002B0AD0164A0020536A9C4203D8926A64
:101590000130AA421FD304B070BD124E02930193D2
:1015A000114B0200009330000B00FFF76DFE011E8F
:1015B000E8DD20BF3000FFF725FF094B0020596A06
:1015C0008C42E8D89B6A0130AB42E4D2641A631EB5
:1015D0009C41E0B2DFE7E41A631E9C41E0B2DAE727
:1015E00000400540840F00202D0F0010F0B5EFF3F0
:1015F0000582D6464F4646461000C0B51038EFF378
:10160000108872B6214C2368002BFCD0BFF35F8F8B
:101610000123190081401E4D1F006963AA461D4D1C
:1016200029601D4D2E78AC463500C5402F402B4219
:1016300009D1BFF35F8F276088F31088E0BCBA46FA
:10164000B146A846F0BD5346144D5F6A83005D590C
:10165000AF420ED3124A8E439B5862461670BFF3B8
:101660005F8F0022226088F31088002BE6D0984715
:10167000E4E70C4B92009C46624413681360BFF38E
:101680005F8F0023236088F31088D7E7280100D0FC
:10169000004005403C700540E2270020B8270020AC
:1016A000C0210020D03F054010B50100024A034888
:1016B000FFF79CF810BDC046E8BA0010DC270020F8
:1016C000034B596A0A00986A596A8A42FAD17047EC
:1016D0000040054070B504000D00124A536A19001D
:1016E000966A536A8B42FAD13000190024184D4192
:1016F000AB4211D80ED02B000A494A6A9A42FCD359
:1017000007D1084A02E0516A994202D1916AA14286
:10171000F9D370BDA642EED9012301246442E51736
:101720005B42E9E700400540064A536A9942FCD80B
:1017300007D1044B02E05A6A914202D19A6A82426E
:10174000F9D370470040054070B504000D00EFF379
:10175000108672B61A4A1368002BFCD0BFF35F8F55
:10176000002D1BD02000FFF70BF9164981420AD04B
:101770002000FFF70DF901212000FFF7D1F8012328
:10178000A340114A1360114BA400E550BFF35F8FD3
:1017900000220B4B1A6086F3108870BD0B4BA20021
:1017A000D5500122A2400A4920000B7893430B70C8
:1017B0000449FFF70BFA00212000FFF7B1F8E5E735
:1017C000280100D0ED15001038600540C021002030
:1017D000E2270020F0B54F46D6464646C0B5070082
:1017E0002F4C616A0D00A66A616AA942FAD18B4248
:1017F00008D805D00120E0BCBA46B146A846F0BDE5
:10180000B242F7D9EFF3108A72B626480168002970
:10181000FCD0BFF35F8F0125BD402349204C884693
:10182000097889462943C9B28C464146604608700A
:10183000391D1E48890065630A51B9000B50216AA1
:101840000020294219D0616A0800A66A616A8142B3
:10185000FAD18B4219D801D1B24216D8CC451DD04D
:101860000F4B1F201D625D6301230740BB40104AE0
:101870001E38136043464A461A70BFF35F8F00223A
:10188000084B1A608AF31088B5E70020BFF35F8F1A
:101890000022044B1A608AF31088ACE70120ECE7C1
:1018A00000400540280100D0E2270020B827002092
:1018B00080E200E0EFF3108C72B60A490B68002B4F
:1018C000FCD0BFF35F8F01238340074A07481362B0
:1018D00002789A430270BFF35F8F00230B608CF392
:1018E00010887047280100D000400540E227002002
:1018F00070B5050014001600002915D00C00002A50
:1019000012D080686B689847296800280ED0730051
:101910009B196200033B1219CB18033A9C7088187C
:101920008A5C002A15D10670200070BD63001B1967
:101930007200033B9219CB18033A9E7088188A5C98
:10194000002A02D104703400EEE75A7004703400AB
:10195000EAE75A700670E7E730B583600023CCB23F
:1019600043730133047342608373C4730D000068D2
:10197000012C06D9421C0133DBB2137003329C42A6
:10198000F9D1FF2129404B00591800234018033892
:10199000437030BDF8B5CE46474606000C0080B512
:1019A000002907D04D0003686D18033D5A19577878
:1019B000002F04D12000C0BCB946B046F8BD790064
:1019C000C91903398846434459788946002159701A
:1019D000517073683A002100806898473368002886
:1019E00014D042469A18947059195B5D002B00D0B0
:1019F00053700F70270049463000FFF7CBFF3900C6
:101A000002003000FFF774FF0400D3E7424641466E
:101A10005D19AF709A185B5C002B00D06B7014706E
:101A2000E9E7C046F0B557464546DE464E46E0B5C6
:101A30000D006B0001685B19DF1E0400C85D83B0F8
:101A40000192CA19002850D043001B18033BCB1841
:101A50005E78B446002E1AD1019E002E42D0E67B5D
:101A6000002E04D073009B19CB18033B5D70A37B41
:101A7000002B00D1A573E57300282FD100235370EC
:101A800003B0F0BCBB46B246A946A046F0BD72000A
:101A90006244033A89184A78904600224A70914677
:101AA0005A70010032002000FFF722FF43468246B1
:101AB000002B07D05B0021684344033BCB185A78C6
:101AC000002A16D1424651462000FFF711FF216837
:101AD000019BCA19002BC2D10028CFD043001B188C
:101AE000033BCB1800219970C8E7019B002BB6D1AE
:101AF000C4E75000801803380918487883464846E0
:101B00004870587041462000FFF7F2FE5946804663
:101B10002000FFF73FFF414602002000FFF7E8FEEC
:101B20008046CFE7F0B557464546DE464E46E0B51F
:101B300083B00191457B04006B0000685B19DF1ED8
:101B4000C15DC219002952D04B005B18033BC3187A
:101B50005E78B446002E1CD1019E002E44D0E67B58
:101B6000002E04D073009B19C318033B5D70A37B48
:101B7000002B00D1A573E573002931D10023280083
:101B80005370617303B0F0BCBB46B246A946A04691
:101B9000F0BD72006244033A8018427890460022F9
:101BA000427091465A7020003200FFF7A1FE434672
:101BB0008246002B07D05B0021684344033BCB18CF
:101BC0005A78002A17D1424651462000FFF790FE6E
:101BD000019B01002068C219002BC0D10029CDD083
:101BE0004B005B18033BC31800209870C6E7019BAD
:101BF000002BB4D1C2E75000801803380918487888
:101C0000834648464870587041462000FFF770FEF2
:101C1000594680462000FFF7BDFE414602002000E5
:101C2000FFF766FE8046CEE770B5040000292CD091
:101C3000437B8B422ED00568480040180338281893
:101C40008278002A21D053009B18033BEA5CEE18EF
:101C50008A4202D11BE0002A08D053009B18033BA4
:101C6000EB185A788A42F6D142785A700023012242
:101C7000837043702000FFF7D5FE617B02002000D7
:101C8000FFF736FE6073012000E0002070BD43784E
:101C90003370EBE701221900FFF7C4FE60730120E7
:101CA000F4E7C04630B50C2083B000F0B7F9FEF77A
:101CB0007FFD00280ED0944B944A1A605A609A60B7
:101CC000DA601A615A619A61DA611A62904A5A625C
:101CD00003B030BD8F4CA06700F0F4F901228E4BA9
:101CE0001A60636C012BFCD103228C4B1A60894A69
:101CF000936B012BFCD101330121894A8948009360
:101D0000043300F033F90523874A00930121874803
:101D100000F02CF9864B5A68FF2A02D88022520024
:101D20005A608022784C7D4B21691201804D1A60E7
:101D3000002905D0606900F04BFB01300138FDD16E
:101D4000E0217B4B02201A681140802252012A4375
:101D500011601968484003210140116004219A680C
:101D60001142FCD08022802192012A430901116096
:101D7000802252005A606F4B23616F4B5968FF29D4
:101D800000D85A600321644A6B4B116002399A688B
:101D90001142FCD0E0201A681040802252011A4300
:101DA0001060186848400321014002201160624918
:101DB0008A681042FCD080229201134380221201D3
:101DC0001A6080225D4B52004A6063615C4B596827
:101DD000FF2900D85A6080225A4BE1691201584D00
:101DE0001A60002905D0606900F0F2FA013001386C
:101DF000FDD1E02252490B681A4080235B012B433E
:101E00001A60802380229B012B4312011A608022DA
:101E10003E4B52004A60E3614B4B5968FF2900D8A2
:101E20005A608022494B216A1201474D1A600029ED
:101E300005D0606900F0CCFA01300138FDD1E02214
:101E400041490B681A4080235B012B431A608023B1
:101E500080229B012B4312011A60802380225B00A9
:101E60004B602A4BD2022362394B5968914200D20F
:101E70005A608022374B616A1201354D1A60002981
:101E800005D0606900F0A4FA01300138FDD1E022EC
:101E90002F490B681A4080235B012B431A60802373
:101EA00080229B012B4312011A608023DB024B60CE
:101EB000174B6362284B5A68FF2A02D880225200CF
:101EC0005A608022254BA1691201234D1A60002916
:101ED00005D0606900F07CFA01300138FDD1E022C4
:101EE0001D490B681A4080235B012B431A60802335
:101EF00080229B012B4312011A6080235B004B6000
:101F00000E4BA361E4E6C046DC220020006CDC023C
:101F10001BB70000008000403CB0004030B00040E3
:101F2000002F685900800240008C864700C00240A4
:101F300030800040001BB7003C80004040597307D0
:101F40005480004054B000406080004060B00040C9
:101F50006C8000406CB000404880004048B00040B9
:101F6000014B8000C0587047DC220020F0B5C64607
:101F7000040000B50C2090461F000E0000F028FA67
:101F80004101091A8D01691AC900091889014046E1
:101F900000F01EFA069B3F041A0323681743002B28
:101FA00022DB1A4B1A4DE21853425A4180235B013F
:101FB0009C461203174B62441A60174B1A601100BB
:101FC000AB689943FBD1C022231D92011A43212300
:101FD0002660A06013602368002BFCDA0823E7600A
:101FE000136080BCB846F0BD3F2322681340B34263
:101FF000D7D1A3681B051B0D8342D2D1EE22E36823
:10200000D2021340BB42CCD1EBE7C0460040FDBF3B
:1020100000C0004000E0004000F000408023024A81
:102020009B000343D36270470080054010B5140045
:1020300080221B4BD2051A6000281AD00123194AAE
:102040001843194BDA61194A42401A625962986280
:102050008022134BD2051A601549164A1160E022FE
:10206000D2041A60002C07D18022134B12061A608A
:1020700010BD0D4BD861EBE763011B1B9A00802359
:10208000121912015B049A4200D30C4A0C4B1A60DD
:10209000054B5A608022084BD2051A60E8E7C0461B
:1020A00000B00540D3C007B0008005402D3FF84F79
:1020B000FCFF01000820014000A00540FFFFFF00D9
:1020C00080270020AA23064A1B0113602F230549FD
:1020D000D360054B19605368002BFCDA7047C0468B
:1020E0000040024000B0FA00006002402C4B2D4A34
:1020F00070B51A602C4A2D4B2D491A6014008B685C
:102100009C43FBD12B4D2C4EB54208D2013E761B91
:10211000B60808CD984723000134B342F9D1FFF740
:10212000C1FD264A214B1A60214A9368DB43DB013B
:10213000DD09002BF9D14022214B224C224E9A6717
:102140005A671A67DA66B44208D223682000002B67
:1021500020D00834FEF7A8FEB442F6D31B4E1C4C28
:10216000C022A168300000F079FFA660FEF7AEFB48
:10217000FEF75EFEFFF74EF8164C174EB44208D23B
:10218000013E361BB60808CC98472B0001359E420D
:10219000F9D170BD0834FEF779FEB442D5D3DDE73E
:1021A00000E00040BFCDFBFEFE7F3C0000F00040A1
:1021B00000C00040C4190020D4190020FFFFFF0117
:1021C00000F00140BC190020C419002000000020CC
:1021D00000ED00E0D4190020DC19002000BEFDE76E
:1021E000094A03001068002805D00849C3188B422B
:1021F00007D81360704706480449C31810608B4223
:10220000F7D901204042F5E77823002000000420A0
:10221000E427002010B5FFF7E1FFC04610B50C0021
:1022200082B01900002A0AD0064B019200930200E6
:102230002300054800F032F80120FFF7CFFF034BE1
:102240001A00F2E70CBB00101CBB00108CBA001087
:102250000FB400B5084883B001F032F8049B002B9E
:1022600007D005A91800019100F038F8034801F0E3
:1022700027F80120FFF7B2FF4CBB001058BA00103E
:1022800010B50148FFF7E4FF5CBB001010B5002853
:1022900000D110BD00F0C8FFFBE7C0460FB410B579
:1022A0000C4984B006AA08CA0C680392002C0BD013
:1022B000009201220848524202A9A047012004B01E
:1022C00010BC08BC04B01847180000F0F9FF00204B
:1022D000F5E7C0467C2700208D22001010B5094A82
:1022E0000300146884B0002C08D001220091064835
:1022F000524203A9A047012004B010BD00F0E0FF46
:102300000020F9E77C2700208D22001001480421DD
:10231000014B1847B00F00203D230010142310B5C7
:102320000100188804331B88984710BD162310B588
:102330000100188802331B88984710BDF8B547463E
:10234000CE4680B50F1E19D01423994604330400DD
:102350000025012698464B461888434621681B886D
:10236000984701C4431E9841013540420640AF42A0
:10237000F1D13000C0BCB946B046F8BD0126F8E73F
:10238000124A936F9B0815D29066D166002905D03A
:10239000FFE7FFE7FFE7516F106F704704B580213B
:1023A0000906C2175140002800D0C84309F090FA2E
:1023B000002104BDF0B5146E556E576F166FFFF710
:1023C000E3FF1466556657671667F0BD000000D03E
:1023D000114A936F9B0813D210665166002905D0ED
:1023E000FFE7FFE7FFE7516F106F704704B5002864
:1023F00001D00020C04309F06BFA002104BDC046A3
:10240000F0B5146E556E576F166FFFF7E5FF146643
:10241000556657671667F0BD000000D094464A4ADB
:10242000926F9208624601D228E0C046F0B5464E4F
:10243000346E756E776F366F00F020F89446424A1E
:1024400014665566576716676246F0BD94463E4A65
:10245000926F9208624601D254E0C046F0B53A4EFF
:10246000346E756E776F366F00F04CF89446364ACE
:1024700014665566576716676246F0BD002B24DB6D
:1024800011D000293EDA00B5C943404200D10131E4
:1024900000F038F8C943404200D10131DB435242D9
:1024A00000D1013300BD002AEBD1002801D1002961
:1024B00005D00020C90FC90701D1C043410800B5AC
:1024C00009F0F6F90022002300BD00B500290ADB5F
:1024D000DB43524200D1013300F014F8C9434042BB
:1024E00000D1013100BDC943404200D10131DB437D
:1024F000524200D1013300F005F8DB43524200D1D3
:10250000013300BD002923D1002B18D1002A0CD0A3
:10251000BC460D4F38667A6600210023FFE7FFE7CF
:10252000FFE77A6F386F67467047002801D0074889
:10253000010000B509F0BCF90022002300BD020033
:102540000B00002000217047000000D0FFFFFFFFBC
:10255000002B00D0BFE0130C28D1002AE7D080B4B4
:10256000114F39667A66FFE7FFE730B4040C7B6FE2
:10257000396F1B0423433B667A66FFE7FFE7FFE7FB
:10258000C04684B27B6F3D6F1B0423433B667A6673
:10259000FFE7FFE7C04600232C042D0C7A6F386F4D
:1025A00000196941B0BC7047000000D0F0B59446F6
:1025B0000025140E01D112020835140F01D11201A9
:1025C0000435940F01D192000235D40F01D152008D
:1025D0000135D40B0134254F7C66254C3C660E0C2E
:1025E00093B2FFE7FFE7FFE73C6F6643360C7703E4
:1025F000BE467343DF0B5B04C01AB941130C73432F
:10260000DB18C91ACE086643360CB64493B273433E
:102610001F0F1B01C01AB941130C73431F0B1B057D
:10262000C01AB941860D8F023E436643360C092D10
:1026300024DB520A7243801A7703460A6643360C3B
:1026400016235B1BDE40DF40BF1964466643821BD6
:102650007046043506330100D940A840C01900D3A4
:102660000131A24206D20023F0BD0000000000D0DC
:10267000FFFFFFFF121B0130F3D3F1E709277F1B98
:10268000FE406446A2B27243801A00D20139220C85
:102690007243130C1204821A99410B0070460435E0
:1026A00013370100F940A840801900D30131002BF5
:1026B00002D1A2420AD2F0BD013000D30131121B77
:1026C000FAD2013BF8D1A24200D2F0BD013000D3D2
:1026D0000131121BF7E7F0B51C0C00D080E00CB400
:1026E00000251C0A04D11B02160E334312020835C2
:1026F0001C0B04D11B01160F3343120104359C0B34
:1027000004D19B00960F334392000235DC0B02D1BB
:1027100092185B4101351C00971864410134464F03
:102720007C66464C3C660E0CFFE7FFE7FFE7C046C1
:102730003C6F6643360C7703BE4697B27743C01BA7
:1027400000D20139C01B00D201399FB27743C91BA7
:10275000C91B170C77437E04FF0B801BB941CE08C1
:102760006643360C0C2D33DBB644120B1F053A437F
:102770001B0B97B27743C01B00D201399FB277433E
:10278000C91B170C77433E043F0C801BB941860DD3
:102790008F023E43664329277F1BFE400C3D774650
:1027A000AF40BF1930BCA2B2ABB272437343801AC0
:1027B0009941220C7243130C1204801A99410200B1
:1027C0000B000137001BA941F9D2781E0021F0BD92
:1027D0000C277F1BFE4077467F0BAF40FF19E0E7D9
:1027E00000245D1C07D0144F7D663966FFE7FFE7C4
:1027F000FFE7FFE73C6F95B29EB265436643401B1F
:10280000B141150C1E0C6543664336042F0C3E4344
:102810002D04401BB141994204D202000B0020005C
:102820000021F0BD01D19042F7D3801A99410134C3
:102830009942F2D3F6E70000000000D0FFFFFFFF4F
:1028400048404140484018B41B4B5B68FC4601932C
:1028500008BD04DFC72A001018B4174B1B68FC46DC
:10286000019308BD00DFD12A00109446134A926FED
:10287000920809D2624618B40F4BDB68FC460193FC
:1028800008BD0CDF892D00100C4AF0B5146E556E92
:10289000576F166F6246FFF7EEFF084A14665566DB
:1028A00057671667F0BD18B4034B9B68FC4601934D
:1028B00008BD08DF2D2C0010201B0020000000D0D8
:1028C000FFB550404240504059404B40594000E015
:1028D000FFB5154F4C00640D03D0BC4204D10C036E
:1028E00014D80020090D09055C00640D03D0BC421A
:1028F00004D11C030AD800221B0D1B0501264B40E6
:1029000009D44B4003D58B4200D18242FFBD99428E
:10291000FCD19042FFBD0B43DB1803431343F5D0BA
:10292000C9434918FFBD0000FF07000000B5FFF7CD
:10293000CFFF01D0002000BD012000BD00B5FFF792
:10294000C7FF804100BDC04600B5FFF7C1FF01D9F8
:10295000002000BD012000BD00B5FFF7B1FF8041A0
:1029600000BD012040054A00121804D85A00121870
:1029700001D80020704701207047002070470000F8
:102980000021002805D17047C1174840401AFAD0ED
:10299000C90713B5064B1B6898470CBC441CA240E2
:1029A0001005120B0349091B09051943114310BDFA
:1029B000A82700201F04000010B54C00620D8023E2
:1029C000D218DB00D21A5B057E2A10DD9E3A13DA9C
:1029D000CC170903490819435242D140640001341D
:1029E0001532202A05DAD0400843604310BD00208C
:1029F00010BD0846604310BDC80FC018013810BD97
:102A0000132370B51D78012D15D010DD1C48FFF77C
:102A10008DFC1C4C01008022200000F01FFB022DC9
:102A200006D01948FFF77AFC184B186070BD154C9A
:102A3000174BA364F5E7164B124C23606360A36049
:102A4000E36023616361A361E36123626362A36264
:102A5000E36223636363A363E36323646364A36444
:102A6000E36423656365A365E36523666366A36624
:102A7000E36623676367A367E367A364D1E7C046A0
:102A800053440000201B00204C330000A8270020E6
:102A9000952A001007B5604601880A0A0230DF2A2D
:102AA000FAD1C9B2820804D30288408800041043D6
:102AB00000E00068014A5050039007BD201B002031
:102AC0000FB403BC0CBCF0B50124E407634000E084
:102AD000F0B50C0DCF0F661E3605891B640503D3B8
:102AE000C943404200D30131640D03D0661CF60A8D
:102AF00007D0E41B00207F00791C89078912803CE5
:102B000024031D0DDF0F6E1E36059B1B6D0503D3C1
:102B1000DB43524200D301336D0D03D06E1CF60A25
:102B200007D0ED1B00227F007B1C9B079B12803D82
:102B30002D032F1B661B58D4A446202E46DA2037BF
:102B40001400BC401D00BD40F24033412A438018B0
:102B50005941CB0F05D0C943C043002264425041C4
:102B6000514162464D0D28D10D0D07D100281FD0CF
:102B7000241940414941013A0D0DF9D0640006D3B2
:102B8000013000D30131002C01D140084000013A4E
:102B90000BD4941CE40A04D112051144DB07194438
:102BA000F0BDD907204B194300E0D9070020F0BD44
:102BB0000029DDD1002CDBD1F0BD0132C607400871
:102BC000CD0728434908002EE1D0D9E73C2E29DA69
:102BD000203E40371400BC4000D00124F240144392
:102BE0001A00BB401C43D317ACE7AC46202F08DAD1
:102BF00020360400B4400D00B540F8403941284368
:102C0000A5E73C2F0CDA203F40360400B44000D04A
:102C10000124F84004430800B1400C43C117EAE71F
:102C200010001900002494E70000F07FF0B50C0DAF
:102C3000661E3605891BE60A6405640D02D0651C14
:102C4000ED0A04D0002001210905803C2403A4469C
:102C50001C0D671E3F05DB1BE70A6405640D02D0EF
:102C6000651CED0A04D0002201231B05803C2403CF
:102C70007740644497B484B296B27443070C7E43A1
:102C8000150C6F4380B26843361802D3012000044C
:102C90003F183004350C00197D41844688B29AB241
:102CA00050430C0C62431F0C7C438EB27E4392193E
:102CB00002D301263604A4191604170C36186741EE
:102CC00001BC81B29AB25143040C62431B0C5C43B9
:102CD00080B25843121802D30120000424181004B3
:102CE000130C401863412D185E410020474106BC7B
:102CF00088B293B258430C0C6343120C544389B20C
:102D000051435B1802D301210904641819041A0CF9
:102D1000091862416D1856410020474118BCF9025C
:102D2000720D1143F0026A0D1043ED020A0D03D13A
:102D30006D1940414941013B124E9B1B7600B34245
:102D40000ED26D0007D3013000267141664635432F
:102D500001D1400840001B05C918E4072144F0BD1B
:102D60000BDA013306D1013004D101314F0D01D00E
:102D70004908F2E7E1070020F0BD013631050020E7
:102D8000EBE70000FF030000F0B51C0D671E3F05D8
:102D9000DB1BE70A6405640D02D0661CF60A04D04A
:102DA000002201231B05803C2403D0252D0600268C
:102DB000F6432E661E096E66CE0FF619B44649001C
:102DC0004F0D02D07E1CF60A03D000200021403FA8
:102DD0003F033E1BB600B444013F7F05C91B4908B1
:102DE0002E6F013676089C02950D25437543ED1331
:102DF0007543AD1301356D10F603761B0CB4CC0290
:102E0000450D2C43A2B2B3B25A43270C7B43350C79
:102E10006F43A4B26C431B1902D3012424043F194D
:102E20001C041D0CA4187D4124196D41009A91B217
:102E3000ACB26143170C7C432B0C5F4392B25A43F4
:102E4000A41802D301221204BF182204230C521822
:102E50007B41019C6C431B19520ED9010A4344016A
:102E6000A01A81B2B2B2514303145A43360C7343D1
:102E700087B27743D617D21900277E4136049B19B3
:102E80001704160C7F185E417316ED18F301002627
:102E900080337541A90F06D16400690AE8055B0A11
:102EA000184309D22FE00422944480337541A90AC3
:102EB000A8059B0A184326D3404149412404009A9F
:102EC000019B0D005543641B4343E41A95B286B23F
:102ED0007543170C7E43030C5F4392B25A43B618F6
:102EE00002D301221204BF183204330C52197B4161
:102EF00052429C41002C02D4002201305141400832
:102F0000CA071043490802B06246D7079210084B1F
:102F1000D218084B9A4203D212058918C919F0BD7C
:102F20000020002A01DC3900F0BD01331905F5E766
:102F3000FD030000FE07000051434343C9188C46BF
:102F4000110C83B24B4310B4040C614392B280B2B3
:102F5000504362431C041B0C001910BC594113045C
:102F6000120CC0185141614470470000034BDB6FE5
:102F7000FC4618477CDF113000100000201C0020A8
:102F8000132310B512481C78FFF7D0F90100012C6B
:102F90000AD003DD80220F4800F060F80E48FFF7EA
:102FA000BDF90E4B186010BD0A4C5422200000F0F1
:102FB00055F80B4B6365A365E36523666366A366FB
:102FC000E36623676367A367E3672362E361E5E77B
:102FD00053460000201C00204C330000A82700208E
:102FE000E52F001007B5604601880A0A0230DF2A83
:102FF000FAD1C9B2820804D3028840880004104381
:1030000000E00068014A5050039007BD201C0020DA
:10301000C30FDB0741000A0E07D0FF2A08D00909B9
:10302000054A891819434007704719000020704766
:103030000249C918FAE70000000000380000F07FDC
:1030400001480421014B1847C00F00203D23001008
:10305000014B1B6818470000C00F0020014B5B6844
:1030600018470000C00F0020030010B50800110031
:103070001B68984710BDC046F0B546464F46D64639
:10308000C0B5437D80460E001700002B46D0002AB5
:103090003FDD4B1E9946244B0125002400209A4613
:1030A0000DE04B461B5D0D3B5A425341325DDBB296
:1030B0000A2A0BD02B00013401359F421ADD002C67
:1030C000EFD14346325D1B7D0A2AF3D1002BF1D1AB
:1030D000A04204DA4346211A1B6830189847434639
:1030E00050461B6802219847013428002B00013507
:1030F0009F42E4DC874204DD4346391A1B683018DE
:103100009847F619013E33780D3B5A4253414246E7
:103110001375E0BCBA46B146A846F0BD036811007D
:1031200030009847F5E7C046CCBB0010F0B5DE464E
:1031300057464E464546E0B585B017001C000600D0
:103140000D00FEF7BDFA0023304A12184B41002B48
:1031500058DB2F4908008A4608F0DAFB01906B1C07
:1031600003D1300003F0C6F90500002C25D1294B0E
:103170009846294B1C68002C15D0002F20D1274FD2
:1031800002E02469002C0ED02368002BF9D03B68A4
:10319000002B01D0A342F4D120002A003100C04707
:1031A0002469002CF0D1019B002B27D105B0F0BC85
:1031B000BB46B246A946A046F0BD194B9846D8E793
:1031C000164B994602ABDF1D0A239B4602E0246999
:1031D000002CE8D02368002BF9D04B461B68002B4D
:1031E00001D0A342F3D12A0031002000C0475B4642
:1031F0000122390020003B70C047E8E7504608F044
:103200004FFBD3E70122074B5242A2E740420F0097
:10321000BC190020793000106C230020742300209A
:1032200069300010FFFFFF7FF0B5CE46474680B5FE
:1032300083B06B460600DD1D2870FEF741FA0023BF
:103240001A4A12184B41002B2BDB194908008846FB
:1032500008F05EFB174B81461C68002C14D0164FFB
:1032600002E02469002C0FD02368002BF9D03B68C2
:10327000002B01D0A342F4D1200001222900FFF746
:10328000FBFE2469002CEFD14B46002B05D130000A
:1032900003B0C0BCB946B046F0BD404608F000FBE4
:1032A000F5E70122054B5242CFE7C04640420F00EE
:1032B000BC1900206C23002074230020FFFFFF7F37
:1032C00070B5040003F016F9002301000500012287
:1032D0002000FFF72BFF084B1C68002C06D063680A
:1032E000002B05D098472469002CF8D1280070BD28
:1032F0002469002CF3D1F9E76C230020F0B5474690
:10330000D64680B516000F0083B000282DD11C4B87
:103310001C4D1A685B68019200931B4B9A461B4B2D
:10332000984653461C68002C03D114E02469002CF5
:1033300011D02B68002B01D0A342F7D1A368002B3A
:10334000F4D03100380098470028EFDD03B0C0BC4E
:10335000BA46B046F0BD434600995B6A994209D827
:1033600042460198926A824202D301204042EDE730
:103370009942FAD101200021FEF7ACF9D1E7C0460D
:10338000E0BA0010742300206C23002000400540A8
:10339000F0B54646D6464F460138C0B50D0016007A
:1033A00001283ED8FEF78CF900231F4A12184B4122
:1033B000002B32DB1D49B0460800894608F0A8FA08
:1033C0008246731C03D1280003F094F88046184B02
:1033D0001C68002C14D0174F02E02469002C0FD079
:1033E0002368002BF9D03B68002B01D0A342F4D115
:1033F000200042462900FFF73FFE2469002CEFD150
:103400005346002B05D13000E0BCBA46B146A84671
:10341000F0BD484608F044FAF5E70122064B524257
:10342000C8E701267642EEE740420F00BC190020B3
:103430006C23002074230020FFFFFF7F0120404207
:103440007047C046012040427047C04601204042BC
:103450007047C0460300022200209A424041704754
:103460000A4A1368002B05D10CE01A001B691032C0
:10347000002B07D09842F8D1002902D103691360CC
:10348000016170470029FCD01060FAE76C2300202E
:1034900010B500F0D9F910BD7047C0460022014BAD
:1034A0001A707047DF2700204B790020FF2B0BD1CB
:1034B0008B79002B08D1CB79012B05D1082A03D9B0
:1034C0008A78024B09301A707047C046DF27002007
:1034D0000120704770B5012909D115495379107938
:1034E00009781B0203430020994202D070BD0120DD
:1034F000FCE75378012B08D0022BF7D1002064227F
:103500000021FEF793FD0120F0E79478D2780500C2
:1035100012021443D20502D5620A93401D000548E9
:10352000FEF7FCFE7F210300214028009847C0469B
:10353000DF27002055420000012303700048704738
:10354000D0BB001048780B788A7800021843120428
:1035500010439622CB7810B51B060343D20093424A
:1035600000D010BD0348FEF7D9FE0021030008007B
:103570009847C04655420000024B1860024B196044
:103580007047C046D0220020D422002010B5024B44
:103590001878FDF7D7F910BDE0270020114B70B562
:1035A0001A68002A1AD0EFF3108172B6106800284A
:1035B000FCD0BFF35F8F00220B48596002701B687C
:1035C000BFF35F8F1A6081F3108800240025074B3A
:1035D0001878FDF7B7F92900200070BDFA240025FE
:1035E000A400F4E788270020E1270020E02700203E
:1035F00070B5040000200E0001F002FB002835D059
:10360000002001F015FB002830D0FEF759F8002308
:10361000184A12184B41002B24DB174D280008F0E4
:1036200077F9002822D0002001F0EAFA00280BD117
:10363000012000210324404200F0CCFC6442280019
:1036400008F02EF9200070BD002001F0F1FA0028EA
:10365000EED021003200002001F0F6FA041EEED177
:10366000033CECE70122054B5242D6E703246442B7
:10367000E8E7C04640420F00B0270020FFFFFF7F71
:10368000F8B5DE46574680B505000C00FEF718F881
:103690000023364A12184B41002B5ADB34490800EC
:1036A0008A4608F035F9002803D1C0BCBB46B246B3
:1036B000F8BD002001F0A4FA00284ED00026002C0E
:1036C00043DD2C4B9B4614E0A919002001F030FB90
:1036D000070001200021404200F07CFC002001F0A6
:1036E000EBFAFDF7EDFF234BF61918605960B44271
:1036F0002BDD002001F036FBA71B0200B84200DDE5
:103700003A00002AE0D101200021404200F062FC92
:10371000002001F0D1FA002001F072FA002814D044
:10372000002001F01FFB0028E1D1FDF7C9FF5B4637
:103730000F001A685B68002184460F4812184B413D
:103740009F4202D8D3D19445D1D9504608F0A8F869
:10375000ABE70122094B5242A0E700200021054BB4
:1037600018605960504608F09BF89EE740420F00F1
:10377000B0270020E01A002020A10700FFFFFF7FF4
:1037800010B5244C84B00021200008F0A9F80028CE
:103790001CD1214B1A68002A16D0EFF3108172B6A3
:1037A00010680028FCD0BFF35F8F01241B485960CC
:1037B00002781B68D2B20470BFF35F8F00201860DC
:1037C00081F31088002A0AD004B010BD0120002126
:1037D000404200F0FFFB200008F062F8F4E7FDF73C
:1037E0004FFD0400FDF76CFFFA220023920012182F
:1037F0004B41002B09DB0121029100210191084975
:1038000020000091FDF740FDDEE70122054B52420A
:10381000F1E7C046B027002088270020E1270020DC
:103820009D350010FFFFFF7F054B10B5186800287D
:1038300004D0044B0022196801F044F810BDC046C2
:10384000D0220020D4220020D02310B51B0684B043
:103850001C68FDF715FDFDF70FFEA04202D0002009
:1038600004B010BD264B1B7801F066FC2548FDF71F
:103870000DFB0120FDF7EEFAFF23234C23492070B6
:103880001840FDF785F820780121FDF749F805205B
:10389000FDF760F8002822D1FDF7F2FC0400FDF7E7
:1038A0000FFFFA220023920012184B41002B22DB5B
:1038B0000121029100210191154920000091FDF79D
:1038C000E3FC0822040000211248FFF7C1FB002C92
:1038D000C5DB11480121FFF7C3FD0120C0E700222D
:1038E0000E490520FDF77EF8FCF7FEFF01000948B0
:1038F000FDF7F8FAEDE70122094B5242D8E7C0463E
:1039000028C40010B0270020E027002081370010D5
:103910009D35001088270020D00F00208D35001025
:10392000FFFFFF7F0048704788BC001000487047C9
:1039300034BC001070B5040017480378002B21D068
:10394000002C06D1C1241548154BA40043800480E7
:1039500070BD052C1DD8134B1048A400E558811CE0
:10396000002304E001330A800231132B0ED0EA5CFD
:10397000DCB2002AF6D1C0230134E4B264009B001B
:103980001C43E4E7112100F017F8D9E7CA24A4008A
:10399000DDE70020DCE7C046C827002044230020E4
:1039A000090400009CBC001010B5024800F0D8F8D3
:1039B00010BDC046A027002030B54B1E012900D104
:1039C000A7E0664A11780D112C0030349F2900D9E8
:1039D000A2E00470012B00D1BEE00F211478214039
:1039E0000C003034092900DD98E04470022B00D12E
:1039F000B2E054782511290030319F2C00D990E095
:103A00008170032B00D1A7E00F2121400C0030343E
:103A1000092900DD87E0C470042B00D19CE0947874
:103A20002511290030319F2C00D97FE00171052B31
:103A300000D191E00F2121400C003034092900DD34
:103A400076E04471062B00D186E0D4782511290058
:103A500030319F2C00D96EE08171072B00D17BE0C3
:103A60000F2121400C003034092966DCC471082B79
:103A700000D171E014792511290030319F2C5FD8D5
:103A80000172092B68D00F2121400C003034092924
:103A900058DC44720A2B5FD054792511290030314B
:103AA0009F2C52D881720B2B56D00F2121400C0035
:103AB000303409294BDCC4720C2B4DD0947925117C
:103AC000290030319F2C00D9073101730D2B43D0D1
:103AD0000F2121400C003034092901DD37310C0061
:103AE00044730E2B38D0D1790C11220030329F292B
:103AF00000D9073282730F2B2ED00F220A401100FB
:103B00003731092A01DC30321100C173102B23D068
:103B100010300023037030BD07345AE737310C00F2
:103B200063E707316CE737310C0074E707317DE755
:103B300037310C0085E707318EE737310C0095E708
:103B400007319DE737310C00A3E70731AAE737318A
:103B50000C00C4720C2BB1D1C018DAE7A0270020EA
:103B600030B5002589B004000922002101A8009584
:103B7000FFF76EFA0922002105A80495FFF768FAFD
:103B80004B236A466846137004A90D2207F080FE95
:103B90001521082220006944FFF760FA09B030BD02
:103BA00010B501210520FCF7BBFE10BD10B50022A9
:103BB0000021024800F05AF910BDC0469C230020A5
:103BC0008022024B5202DA647047C0460020115036
:103BD000F0B5C64600B5060000F022F90C231B4DD7
:103BE000FF22AB6705201A49FCF7FCFE40239846EC
:103BF000184C402200212000FFF72AFA43460127F3
:103C0000238321210023144A6770A2601360635448
:103C10005F31618441462187053963540F4A104959
:103C20006360E260A1620B606362E26207F088FE9B
:103C300080239B052F64EB6490230A4A3000EA50EE
:103C4000FFF7BEFF80BCB846F0BDC0460000115073
:103C5000F90400207C230020840010500001105043
:103C60008000105010D001000B785B0602D14B7819
:103C7000052B00D070478A78014B1A60FAE7C046DE
:103C800000001150F0B5C64600B54B790C791B0207
:103C900088782343CC787F21A4070140C509A20F6F
:103CA0004F001400324E7A195201B2189070012060
:103CB0006840507000205B055B0DD0701383D47694
:103CC0008046CA00012D33D02A48844688016244C8
:103CD0008446B4446046826040461060002933D078
:103CE000254AC90090466246414451603F223F3315
:103CF0009343022C00D15B0020487A1901685201DD
:103D0000B218D1601E4ACB18036051405340802244
:103D100088465201934228D84346A4061C43802378
:103D20007F197F011B06F6191C4373681C6011E0A4
:103D300014488446880162448446B44460468262E2
:103D400040461060002909D100236D017619736087
:103D50000D4BF360012080BCB846F0BD084AC90095
:103D60009046624641445162C0E7FEF789FAD3E7C4
:103D70007C23002084001050040010508427002071
:103D800000001050800010500001105010B507F0D6
:103D9000D7FD10BD10B57F200C0020404000E40985
:103DA000110000191A00034B4001C01800F05EF822
:103DB000012010BD7C2300207F22130010B50B4092
:103DC0000A420BD0C9098022580040180649400118
:103DD00040181201002107F0BBFD10BD022203486C
:103DE000C909521A8266EEE77C2300200020115098
:103DF0007F22100010B508400A4200D110BD0023F8
:103E0000C90940004018044940010818002203492C
:103E1000C37007F09DFDF1E77C230020FFF7FFFF53
:103E200080220D4B520410B51A600C4B0C491A60DD
:103E300010008B689843FBD10A4C9C220021200083
:103E4000FFF706F98022002152010748FFF700F929
:103E50000923636710BDC04600E0004000F0004049
:103E600000C00040000011500000105070B5837E6B
:103E700004000D001600002B17D10023E38201334C
:103E80002000A682A376256107F06AFD002804D0F1
:103E900080219023084A8902D150200007F030FD8C
:103EA000002805D00123237770BD07F041FDE4E72A
:103EB000200007F035FDF7E700201150024B58783D
:103EC000431E9841C0B270479C200020024B1878D6
:103ED0004007C00F7047C0469C200020034B187855
:103EE000FF38431E9841C0B27047C0460C100020F6
:103EF000F8B5CE46474680B52C4E050033780120F4
:103F0000FF2B03D0C0BCB946B046F8BD53220021F8
:103F10002748FFF79DF8274C2000FCF7B7FF264BFA
:103F20001C60264C20001430FCF7CCFF200001F070
:103F3000D1FB234B234F1C60234B9846002B04D00E
:103F40003800FFF7F9FA214B1860424600243B780D
:103F5000002A23D01E4A90461C4A9146A34212D8FA
:103F60000FD14346984701343B78E4B2A342F5D2DF
:103F700028003570FFF72CFE2800FFF711FE012006
:103F8000C0E70020BEE74A461268630094461B194A
:103F9000DB006344002BF4D01B68E3E700F0EEFE87
:103FA0003B780020002BADD1E2E7C0460C1000208A
:103FB0009C20002054200020F0200020F00F002042
:103FC000F4200020D927002039350010741D00206E
:103FD0007D4D0010F0B5DE4657464E464546E0B5ED
:103FE0008BB001F0AFF8002800D10FE1CD4BCE4DE2
:103FF0009946CE4B07AC9B462E687269EFF3108151
:1040000072B61368002BFCD0BFF35F8FB161300034
:10401000210001F0A1F97269B369BFF35F8F00213C
:10402000116083F31088002800D1EFE06378082B3B
:10403000E2D84A469B00D3589F466368002BDBD0EA
:10404000A0689847D8E77F222179B84E0A405000EF
:10405000CB093618F618300001273030C378BB433F
:10406000C370C3780337BB43C370002A00D1F2E0AA
:10407000AF4AF37C002A06D0AE4A1278934200D2AF
:1040800044E19B1ADBB2002B00D0BFE0AA4E62795C
:104090002078A368B047AFE75B4601221B78012177
:1040A00013435A46137033235846D25C5E468A4304
:1040B000C254C25C04208243F2540133F25C8A434E
:1040C000F254F25C8243F254237800209A4600F0C6
:1040D00005FD602223791A40602A0DD0402A00D1C4
:1040E000BFE0DB06DB0E012B00D137E1022B00D154
:1040F000D4E0002B00D1C3E020780021FFF75CFE64
:1041000080212078FFF758FE76E7884E3378DB076A
:1041100000D471E7894B002B00D16DE700E000BFB0
:104120006AE7824E3378DB0700D465E7844B002BC7
:1041300000D161E730780007C00F00E000BF5BE707
:104140007C4B7B4A9846002627781B78002A00D1B2
:1041500079E07C4A92469E425FD319D17A4B38006F
:104160009847434601361B78F6B2B342F3D26F4EFE
:10417000532200213000FEF76BFF1022FF21F01CBC
:10418000FEF766FF30002022FF211330FEF760FFAC
:1041900000F09AFC6D4B002B00D12DE700E000BF32
:1041A0002AE7644B624A9846002627781B78002A43
:1041B0001FD0644A92469E423AD321D1624B3800C6
:1041C0009847434601361B78F6B2B342F3D2574EB6
:1041D000532200213000FEF73BFF1022FF21F01C8C
:1041E000FEF736FF30002022FF211330FEF730FFAC
:1041F00007E0380000F000FE43461B78002BE6D0B5
:104200004A4E00F061FC2379B370F5E60BB0F0BCC8
:10421000BB46B246A946A046F0BD5246126873009E
:1042200094469B19DB006344002BB1D05B6896E792
:1042300052461268730094469B19DB006344002BBE
:10424000DED05B68BBE7380000F0D6FD43461B7844
:10425000002B9DD18BE762792078A36800F052FC97
:10426000CAE63B48002800D146E700F037FC0121B0
:10427000504608AA00E000BF002800D0BCE63BE79B
:10428000202A00D19FE0002A00D035E76379092B6E
:1042900000D931E72F4A9B00D3589F467023217ADB
:1042A0000B4200D028E758460F330B405B00CE0985
:1042B000C0181F4F8019C07C002F06D01D4F3F78BB
:1042C000B84200D2A1E0C01BC0B2002800D097E0E5
:1042D000002A00D048E1204F0220627990468243B4
:1042E000012A00D143E14246002A00D004E75B44A2
:1042F0009E193036F37806AA9B07DB0F0232138033
:104300005046022308A900F081FB75E65A00D31835
:104310000C4ADB001268D318002B00D176E71E6927
:10432000B5E6C0461CBD0010F42000209C200020F3
:1043300039350010D9270020F14F0010000000008F
:1043400000000000741D0020F94D00100000000066
:104350000000000040BD0010A8BD0010237A0F2B04
:1043600000D9C9E6AA4A5B44DB78002A05D0A94AED
:10437000127893425ED39B1ADBB2002B00D0BBE6CF
:10438000A548A64E00F0AAFB01215046F36808AAF2
:104390009847002800D02FE66022160023791E409F
:1043A0001A4200D0A8E663790A3B012B00D9A3E6A4
:1043B00000F094FB63790A2B00D120E1504608A954
:1043C00000F00CFB18E6237A0F2B00D994E6904AF4
:1043D0005B44DB78002A06D08E4A1278934200D2E2
:1043E000E6E09B1ADBB2002B00D085E68A488B4EB4
:1043F00000F074FB01215046F36808AA98473BE798
:104400000027002A00D167E776E647003818844F76
:10441000C0003F683F18002A00D15DE7002F00D19F
:104420006AE6F86800F05AFB01215046FB6808AACA
:10443000984721E77A4A5E00F3181668DB00F61801
:10444000002E00D158E6F0689CE7A27901927378BB
:104450009A4207D07378002B00D045E1019B002BD6
:1044600000D0E9E05B46019A504608A95A7000F076
:10447000B5FAC1E5737806AA0232137050460123DB
:1044800008A900F0C3FAB7E5E088030AC0B20F2B11
:1044900000D931E663499A008A58974608A800F087
:1044A00023FB5046A179FFF781FB022233781343A7
:1044B0003370A1E5E388012B00D01DE60822337894
:1044C00093435A46137079E70220317806AB9A1C61
:1044D0008B068908DB0F01400B4310E7E388012BB3
:1044E00000D009E6082233781343EAE74E4B002B4D
:1044F00000D101E600E000BF021E00D1FCE5D37848
:1045000091781B020B43504608A900F07FFAB3E6EE
:10451000464B002B00D1EFE500E000BF021E00D1AA
:10452000EAE55046137808A900F070FAA4E621895C
:10453000FFF700FA021EF4D1DEE5022B00D111E1F3
:104540003B4B002B00D1D7E500E000BF0200002A62
:1045500000D1D1E5D3E7FFF7E5F91223020008A95E
:10456000504600F053FA87E62B482C4F5AE7E28872
:10457000002A08D142465B449E193036F378012A5E
:1045800021D09B072ED5002F00D135E5F86800F02B
:10459000A5FAFB6808AA012150469847002000F0C0
:1045A0009DFA34235A46D35CDB0700D524E505E7A2
:1045B0001B4A5E00F3181668DB00F618002E00D1C7
:1045C0009AE5F06814E79B07DDD51A4B1878FFF7DA
:1045D0000FFC0222F37893434246F370F37893433F
:1045E000F370D0E7134B1878FFF7E6FB0222F3785D
:1045F00013430122F370F3781343F370C3E706AB60
:104600009A1C5046012308A9167000F0FFF9F3E444
:1046100039350010D92700200D4F0010A8BD00101B
:10462000741D002068BD00100000000000000000A4
:10463000000000000C100020581EC0B2FFF776F9F1
:10464000002800D158E543780593022B00D053E5AC
:104650000121C2790700931152110B400A40120147
:104660005B0113435A4612782F318A4313435A464B
:104670001370C37882781B021343C318093703935E
:10468000039BBB4200D8ACE001227B7800920B2B4D
:1046900003D1FB7800933B78FF187B78042B00D084
:1046A0002AE50026039B584ADB1B9BB20293574B1B
:1046B00004931B78B24263D0B846B34256D800D0B8
:1046C0001AE5534B534F41465046029A98470828E3
:1046D00003D9029A824200D38AE0049B01361B78F8
:1046E000F6B2B342E9D207E55046FFF74FFBB37885
:1046F000454A0093454B002698461B78002A0DD06A
:10470000454FB34225D820D1444B504698474346A5
:1047100001361B78F6B2B342F3D206E0504600F001
:104720006BFB43461B78002B0FD1532200215846C8
:10473000FEF78EFC5B461022FF21D81CFEF788FC9A
:104740002022FF213648FEF783FC5B46009A9A70D0
:1047500084E618233A68734394466344002BF4D0EC
:104760005B68D2E7FFF7E2F80200F0E62A4B1F6829
:1047700018237343FF18002F00D1BDE4BB68A2E7E4
:10478000029B39001A005046984600F04BFB08285F
:1047900000D8B1E44246824200D2ADE41D4B9846B7
:1047A000009B012B28D000220AE0BB78D318DBB293
:1047B0005B44D978FF2900D09EE40132DE70D2B28A
:1047C000009B9A42F1D18046330002003900144820
:1047D00000F03CFD049B47441B78B34200D34FE7F5
:1047E0008AE4104B002B00D13CE600E000BF39E624
:1047F0003B0047469846D3E74246054B92689A42AB
:10480000D1D1059B0093CEE739350010D927002080
:10481000254E0010A8BD0010741D0020F94D001099
:10482000AF20002000000000F8B557464E46DE4697
:1048300045460C00E0B516001F00002A3CD070234E
:1048400098461E4B00259B461D4B9A461AE05B4638
:104850001B78200099465346997800F0BBFC00284D
:104860001CD021004846FFF70DFA002816D0A37887
:10487000DA09012A19D00A9A013513702378E4184D
:10488000B54219DA6378052B08D1E3789B079B0FB3
:10489000BB4203D14246A3781A42D8D00020F0BCD4
:1048A000BB46B246A946A046F8BD0B9A0135137027
:1048B0002378E418B542E5DB0120F0E70C10002076
:1048C0009C200020802310B51B0184B001930E4B67
:1048D00002901C6803916269EFF3108372B611684D
:1048E0000029FCD0BFF35F8FA361200001A900F075
:1048F000F9FD6269A369BFF35F8F0021116083F343
:10490000108804B010BDC046F4200020702270B59D
:104910008B780C001A4201D0002070BD064B20009D
:104920001D78064B997800F055FC0028F4D0210042
:104930002800FFF7A7F9F0E70C1000209C200020CA
:10494000074B080019687F2310B50340C0095B00BE
:1049500033301818034B181800F0F8FB10BDC04690
:10496000F02000209C200020074B080019687F23BE
:1049700010B50340C0095B0033301818034B1818FA
:1049800000F00CFC10BDC046F02000209C20002050
:104990007F2070B508400F4C4000CD0924186419E1
:1049A0003034E5780020ED0700D570BD0126E578AC
:1049B000094835430078E570FFF7ECF90028F4D199
:1049C0000122E3789343E370E37803329343E37087
:1049D000EBE7C0469C2000200C10002070B50A4E6A
:1049E0000500300008220C00FEF738FB00237F2171
:1049F000F3602278B36091425B412800D901002224
:104A00000023FFF7C5FF70BD40200020F8B5CE465B
:104A1000474691462A4E80B50822070030000D0017
:104A20009846FEF71BFB4B46B3600023F381EC79FD
:104A3000A97924020C43231C444500D943469AB269
:104A40009046B381002C13D0002A1FD04B46002B78
:104A500034D0131C402A1FD89BB2984633787F2B42
:104A600020D80021174A43463800FFF791FF09E09C
:104A70007F222B7838009A42644100230022E10112
:104A8000FFF786FFC0BCB946B046F8BD33787F2B30
:104A900011D980210022E6E740239BB29846337863
:104AA0007F2BDED9074C424649462000FEF7D6FA56
:104AB00080212200D7E700210022D4E70020E1E78F
:104AC000402000205C20002010B514220021024864
:104AD000FEF7BEFA10BDC04640200020014B186111
:104AE0007047C0464020002010B5054C0100082248
:104AF0002000FEF7B3FA0023A360E36010BDC046B8
:104B000040200020F8B53B4C1D0023780600DA0950
:104B1000C9098A4213D00020002D00D0F8BD364BC1
:104B2000002B03D021003000FFF79EF82369002BF3
:104B300044D022000321300098470120EEE77F2B6C
:104B400006D8A068002837D02A002C49FEF786FA3C
:104B5000A368E28959195219E38892B2E281A160EF
:104B6000934214D03F2D12D9A589A81A071C80B2F0
:104B700040282FD82378BFB27F2B2DD80021AA42FE
:104B800035D01E4A3B003000FFF702FFC6E723691D
:104B9000002B05D0220002213000984700280FD0BA
:104BA0007F220021237830009A42494100230022CD
:104BB000C901FFF7EDFEB1E70020AFE70120ADE747
:104BC00000213000FFF7F8F830008021FFF7F4F8FB
:104BD0000120A3E74027CDE7AA4207D0074C3A00BF
:104BE0002000FEF73BFA80212200CBE78021002243
:104BF000C8E7C04640200020693C00105C2000202F
:104C000010B50400FFF75AF9002801D1002010BDAB
:104C1000FFF75CF90028F9D1B22080004443034833
:104C20000019037901201840F1E7C046781D0020E3
:104C3000B2239B00584310B5024B1030C01800F04F
:104C400057FB10BD781D0020F0B5B225AD004543DF
:104C50002C00C646174F1034E41900B5200092B25C
:104C600000F0CAFB0600200000F060FB3F2803D8DC
:104C7000300080BCB846F0BD7B190020D97898463A
:104C8000FFF75EFE0028F3D0200000F04FFB3F2826
:104C90000AD992239B00EA184346D219D9780020FA
:104CA0004023FFF775FEE3E743460020D978FFF77E
:104CB0005BFEDDE7781D0020F8B50400FFF7FEF885
:104CC000002801D10020F8BDFFF700F90028F9D134
:104CD000B220800044432500144E2435AD1928002D
:104CE00000F006FB0028EDD037190020B978FFF757
:104CF00027FE0028E6D0A2239B009C466444A4190A
:104D000021002800402200F077FBB978051E08D06A
:104D1000030022000020FFF73BFE0028D2D028002D
:104D2000D1E70020FFF720FECCE7C046781D002029
:104D300070B5B224A4004443094B2434E4180500A0
:104D400092B2200000F012FC0600200000F0D0FA21
:104D50003F2801D8300070BD2800FFF7ADFFF9E70C
:104D6000781D0020B2239B00584310B5024B24301D
:104D7000C01800F0DBFA10BD781D0020B222F0B59B
:104D80001B4C83B0002120009200FEF761F9FF2345
:104D90006371184B80260025E3800127082321003A
:104DA0002000760023733200278138310095073BBD
:104DB000103000F065FA2100200039313200FF3157
:104DC00001230097243000F05BFA8E239B00E61845
:104DD0003000FCF75BF890239B002662E618300059
:104DE000E561FCF753F82663656303B0F0BDC04688
:104DF000781D002000C2FFFF10B5094C05220021DC
:104E00002000FEF725F920002434103000F062FC69
:104E1000200000F05FFC0121200000F07BFC10BDB1
:104E2000781D0020F0B54B79060083B0022B02D12B
:104E30008B79022B03D00025280003B0F0BD304F42
:104E4000BB78002BF7D18B7809253B700C780C19B7
:104E50006378242B0BD1082A02D80FE0AA420DD385
:104E60002378E418ED186378ADB2242BF6D0052B27
:104E700021D0042B02D163790A2B2FD0214C2000A2
:104E800000F054FA3F28D7D92600103E0020F178D0
:104E9000FFF756FD0028CFD0200000F047FA3F284A
:104EA00017D98E239B00E218F93BF178FF3B0020D5
:104EB000FFF76EFDC0E721003000FFF727FD002857
:104EC000B9D0A3787B702378ED18E4186378ADB27D
:104ED000CFE7F1780020FFF747FDADE70A4B2778D1
:104EE000019301330093022202233000E119FFF7FE
:104EF0009BFC00289FD00E35ED19ADB2BEE7C04631
:104F0000781D0020881D00207A1D0020F8B5602340
:104F100014001278050013400020202B12D12F4AD4
:104F20006379277916781B023B439E420AD1637846
:104F3000222B27D007D8202B17D0212B02D10129D3
:104F40003DD00120F8BD232BFCD101293FD00329FE
:104F5000F7D1234B002BF4D0E178A378090200208D
:104F6000194300E000BF0120ECE7012927D0032905
:104F7000E7D11C4B002BE4D00020911DFEF7E2FA94
:104F80000120DFE7012922D00329DAD101252E00F3
:104F9000A378E478023924021C4314712640243299
:104FA0001000714000F0B6FB0F4B002BC9D0620817
:104FB000002031002A4000E000BF0120C2E70723A3
:104FC00021002800094AFFF721FD0120BAE721004E
:104FD0002800FFF703FD0120B4E7C046781D00203C
:104FE0000000000045350010000000007E1D00207C
:104FF000F8B557464E464546DE46E0B5494F804631
:10500000FA780C001E008A4264D19AB292239B0067
:10501000FD1810239B46BB442900584600F0A6FA11
:10502000414BD946002B18D07B79D946FF2B14D0A1
:10503000002E12D0AA19924603E0013555450CD036
:105040007B792A789A42F8D1484600F067F900281F
:10505000F3D1797900E000BFEFE7344B002B04D0A7
:10506000484600F05BF9002852D0484600F05EF94F
:105070003F2834D84A46103A9378A34207D00124F7
:105080002000F0BCBB46B246A946A046F8BD284B5E
:10509000002B02D0002000E000BF0020FFF70CFE34
:1050A0000028ECD1234D280000F022F90028E6D199
:1050B000002EE4D0B306E2D1243D4046A978FFF7A4
:1050C0003FFC041EDBD0002300224046A978FFF7F6
:1050D0005FFCD5E7BB788B42D9D00024D0E74D46A2
:1050E000103D0020E978FFF72BFC002801D1AB78B8
:1050F000C3E7484600F01AF93F280CD98E229200E7
:1051000040230020E9784A44FFF742FCAB78B4E73B
:10511000FEF78AFBA9E70020E978FFF725FCAB78CA
:10512000ABE7C046781D00200000000029380010C1
:10513000000000009C1D002010B50020FEF7D8FEE6
:1051400010BDC04610B5FEF7C9FE10BD037870B59E
:10515000DB0704000E00DD0F002B17D103785B077F
:1051600001D5280070BD01213000494206F0C0FB86
:105170002378DB07DD0F002B0AD123785B0708D4E7
:105180000422237801251343237002E00025E8E779
:105190000025300006F084FBE3E7C04670B50D0043
:1051A000012104004942280006F0A2FB23785B0796
:1051B000DE0F002B04DB280006F072FB300070BD10
:1051C0002378DB0704D40422237893432370F2E787
:1051D0000026F0E710B5437904791B0223435B05F1
:1051E0005A0DC3789B079B0F022B05D0032B15D0BC
:1051F0000020012B08D010BD02291CD00020402324
:1052000093424041C0B2F6E702394B4259410D4B3F
:105210009C46614491424041C0B2ECE702394B42A6
:105220005941F023002049429B00194040319142EE
:105230004041C0B2DFE7044BD3185A425341D8B2C1
:10524000D9E7C046FF03000000FEFFFF8A1870B5D3
:10525000914207D27F264C78052C04D00C7809198E
:105260008A42F8D870BD34008D782C40640004194F
:10527000ED0963550C7809198A42ECD8F2E7C0466B
:10528000F0B5C64600B5040006A80578802088461B
:1052900017001E000002824227D8E068002803D0D1
:1052A0000121494206F024FB2069002803D0012196
:1052B000494206F01DFB4346236073045B0CED037B
:1052C0001D430023E0686381A780E58023810028D7
:1052D00001D006F0E5FA20690124002801D006F08B
:1052E000DFFA200080BCB846F0BD0024F9E7C046D4
:1052F00010B5048941898288A3B288B28C4207D351
:105300001B1A9BB2101C9A4200D9181C80B210BD07
:105310005100091A5B189BB2F4E7C04603000089EC
:105320005B89C01A43425841C0B2704710B5048926
:1053300041898288A3B288B28C4207D31B1A9BB2E0
:1053400000209A4201D9D31A98B210BD5100091A0F
:105350005B189BB2F4E7C04670B5040000690E000C
:10536000002803D00121494206F0C2FA258960894C
:10537000A288A9B283B285422CD3CD1AADB2002D3A
:105380002ED0AA4208D2914231D38B1A9BB26381AC
:105390009A4203D89B1A9BB29A42FBD9E2882168B1
:1053A0005204520C53433000C918FDF757FE61896F
:1053B00001254B1C9BB2A288994214D900235200AC
:1053C0009B1A9BB220696381002801D006F068FA1D
:1053D000280070BD5500ED1A4D19ADB2002DD0D189
:1053E000002563899BB252009342EBDBE8E7891802
:1053F0008BB26381CCE7C046F0B546464F46D646F1
:10540000C0B50600006989469046002803D00121F6
:10541000494206F06DFA31897289B5888BB294B22F
:10542000914257D31F1BBFB2002F4DD0BD4205D2B2
:10543000AB4254D25B199CB22F0074814346B845ED
:1054400040D89FB2A54203D8641BA4B2A542FBD9A1
:10545000F288281B5204530C1900984633686143A4
:105460009C4680B26144874226D94346584383B262
:105470001A0048469A46FDF7F1FD434648467D1B13
:1054800064195C4331685044A2B2FDF7E7FD7189AD
:10549000B588CB199BB26A00994217D99B1A9BB267
:1054A00030697381002801D006F0FAF93800E0BCB9
:1054B000BA46B146A846F0BD424648467A43FDF793
:1054C000CDFDE4E73B1CBCE773899BB26A009342C5
:1054D000E6DBE3E76F003F1BDF19BFB2A4E75B1B0E
:1054E0009CB2A9E7F8B50400C0680E00002803D0FC
:1054F0000121494206F0FCF9258920896189A288A9
:10550000ADB283B28FB2884228D3DB1B9BB29A42E2
:1055100009D8E779FF0906D1E068002801D006F034
:10552000BFF93800F8BD2B00954203D39B1A9BB2FC
:105530009342FBD2E28821685204520C5343C818AC
:105540003100FDF78BFDA2886B1C9BB252009D427F
:1055500009D99B1A9BB201272381DDE75100C91BA2
:105560005B189BB2D3E79342F5DBF2E7F0B54E460A
:105570004546DE465746E0B589460500140083B02F
:10558000002A6ED0C068002803D00121494206F0ED
:10559000AFF92F89EA796B89BFB29BB2D20942D1A8
:1055A000AE889F4267D27200D31AFB189BB20022CA
:1055B00090469E4231D9F31A1A1C9BB2A34200D9DD
:1055C000221C93B29846E8884346FB189BB29B4640
:1055D0003C00B74203D3A41BA4B2B442FBD24004A4
:1055E000430C18009A462B6860439C46311B89B2D5
:1055F000604441454ED35246434649465A43FDF71F
:105600002DFDAB885B00BB4501D39B4503DB5A46B0
:10561000D31A9BB29B465B462B81E868002822D0B8
:1056200006F03EF91FE0AA889046944226D29F4297
:1056300044D34146FA1A92B2490012198A4209DB50
:1056400042469A1892B2171BBFB29346BB423AD950
:105650007F1ABFB2E3199BB246469B46A046E88834
:10566000B6E700239846404603B0F0BCBB46B246BE
:10567000A946A046F0BDFB1A9BB298E7E888A21A9B
:105680004404640C54434246A144002AC5D0464613
:105690001F0099E75346594389B20A0001914946D0
:1056A000FDF7DCFC43469A1B5346A2185A43019966
:1056B000286892B24944FDF7D1FCA2E75100CA1A0A
:1056C000BA1892B2B9E7B942C2DD4646E888A046A8
:1056D0007EE7C04610B50400C068002803D0012151
:1056E000494206F005F92069002803D0012149420A
:1056F00006F0FEF80023E06863812381002801D0D2
:1057000006F0CEF82069002801D006F0C9F8012083
:1057100010BDC04670B50400C0680D00002803D05D
:105720000121494206F0E4F82069002803D0012154
:10573000494206F0DDF87F21E379ED011940E06888
:105740002943E171002801D006F0AAF82069002859
:1057500001D006F0A5F8012070BDC0460B4B10B576
:105760009C46604443425841094A840082B00092FA
:1057700008482200E31CFBF75BF8844202DC001BB4
:1057800002B010BD01204042FAE7C0460000D0AF91
:10579000C0BD0010DD270020F0B5D6464F46464676
:1057A0008846C0B505240600FBF70AF843461F7972
:1057B0001C57284B8146F01843425841264B9A46C5
:1057C00083009C4653466246985801222023BA40E3
:1057D000DB1B013A002C32DB9C422DDCA240150081
:1057E000104229D1002F1AD043465A781978120254
:1057F000114342469B78D2781B040B4312061A438E
:105800009046002241465300C95A4B0B00D109195A
:10581000131912339B00013299519742F2D8534623
:10582000624605439D504846FAF7D6FF2000E0BC8B
:10583000BA46B146A846F0BD0848FCF709FD002B62
:1058400002DAF9E7013BF7D315009D401C00054241
:10585000F8D1C7E70000D0AFB8210020E4BD0010A8
:105860004B00F0B557469A468A445346DB00C118B0
:10587000844608004E46DE464546DC300468E0B506
:10588000A3460C00CC34246883B00194C024CC33EC
:10589000A401634423438024A4021C601F24A14666
:1058A000E024240200262023A046D8311C00052B2A
:1058B00000D905247701A5063D4305604D464746BE
:1058C00015403D430D601B1B36195209002BEDD1CD
:1058D0005B4603605346D8006044019BCC300360B4
:1058E00003B0F0BCBB46B246A946A046F0BDC046D8
:1058F000F0B557464E464546DE468946E0B583B08C
:105900000CA90D784946490088464944C900461803
:1059100037003400DC3701903868CC348346206887
:10592000C02482460198CC318446A40161442143BD
:105930008024A4020C60691E8D411F216D420D4020
:1059400016498C466544052B0ED9A02149058C4685
:105950001F21D8366046540104430532053B3C60A4
:105960000A403560052BF5D8414652019B0613438A
:105970004944019AC90050180200DC321360030048
:10598000D8331D605B4613605346CC30036003B0D0
:10599000F0BCBB46B246A946A046F0BD80E0000080
:1059A000F0B501258D400468AC434D0004606C18CF
:1059B000E40004192600C836002B28D01F68DC3408
:1059C00037605F6877609F68DB68B76023606D1839
:1059D000EB001D008024D035451964012C4380253F
:1059E0002D062560256001250F4C2E008C4084601B
:1059F0000C1DA640802408318D401F21A4010443C2
:105A0000C0180A40D830266025600260F0BD8027AB
:105A10007F023760F8277F027760C027DC343F03BE
:105A2000B7602360D3E7C046010101014B005B185A
:105A3000DB00C3181A00D032126830B59203094C4B
:105A4000D2172240084C1831A44601248C404568E6
:105A500062442C4204D1D8331A6041680C42FBD016
:105A600030BDC046E0DFFFFF8080000010B551432D
:105A700000F0C6F8041E0ED00300083B5A6803234A
:105A80009A43043A242A15D80300132A05D8002281
:105A90001A605A609A60200010BD0021083301602E
:105AA00041601B2AF3D98160C160242A06D003001B
:105AB0001033ECE70021FDF7CBFAECE703000161BE
:105AC00018334161E3E7C0460CB400B583B004ABC2
:105AD00004CB019300F03CFD03B008BC02B01847B2
